{
  "_format": "hh-sol-artifact-1",
  "contractName": "MyEpicNFT",
  "sourceName": "contracts/MyEpicNFT.sol",
  "abi": [
    {
      "inputs": [],
      "stateMutability": "nonpayable",
      "type": "constructor"
    },
    {
      "anonymous": false,
      "inputs": [
        {
          "indexed": true,
          "internalType": "address",
          "name": "owner",
          "type": "address"
        },
        {
          "indexed": true,
          "internalType": "address",
          "name": "approved",
          "type": "address"
        },
        {
          "indexed": true,
          "internalType": "uint256",
          "name": "tokenId",
          "type": "uint256"
        }
      ],
      "name": "Approval",
      "type": "event"
    },
    {
      "anonymous": false,
      "inputs": [
        {
          "indexed": true,
          "internalType": "address",
          "name": "owner",
          "type": "address"
        },
        {
          "indexed": true,
          "internalType": "address",
          "name": "operator",
          "type": "address"
        },
        {
          "indexed": false,
          "internalType": "bool",
          "name": "approved",
          "type": "bool"
        }
      ],
      "name": "ApprovalForAll",
      "type": "event"
    },
    {
      "anonymous": false,
      "inputs": [
        {
          "indexed": false,
          "internalType": "address",
          "name": "sender",
          "type": "address"
        },
        {
          "indexed": false,
          "internalType": "uint256",
          "name": "tokenId",
          "type": "uint256"
        }
      ],
      "name": "NewEpicNFTMinted",
      "type": "event"
    },
    {
      "anonymous": false,
      "inputs": [
        {
          "indexed": true,
          "internalType": "address",
          "name": "from",
          "type": "address"
        },
        {
          "indexed": true,
          "internalType": "address",
          "name": "to",
          "type": "address"
        },
        {
          "indexed": true,
          "internalType": "uint256",
          "name": "tokenId",
          "type": "uint256"
        }
      ],
      "name": "Transfer",
      "type": "event"
    },
    {
      "inputs": [
        {
          "internalType": "address",
          "name": "to",
          "type": "address"
        },
        {
          "internalType": "uint256",
          "name": "tokenId",
          "type": "uint256"
        }
      ],
      "name": "approve",
      "outputs": [],
      "stateMutability": "nonpayable",
      "type": "function"
    },
    {
      "inputs": [
        {
          "internalType": "address",
          "name": "owner",
          "type": "address"
        }
      ],
      "name": "balanceOf",
      "outputs": [
        {
          "internalType": "uint256",
          "name": "",
          "type": "uint256"
        }
      ],
      "stateMutability": "view",
      "type": "function"
    },
    {
      "inputs": [
        {
          "internalType": "uint256",
          "name": "tokenId",
          "type": "uint256"
        }
      ],
      "name": "getApproved",
      "outputs": [
        {
          "internalType": "address",
          "name": "",
          "type": "address"
        }
      ],
      "stateMutability": "view",
      "type": "function"
    },
    {
      "inputs": [],
      "name": "getTotalCount",
      "outputs": [
        {
          "internalType": "uint256",
          "name": "",
          "type": "uint256"
        }
      ],
      "stateMutability": "view",
      "type": "function"
    },
    {
      "inputs": [
        {
          "internalType": "address",
          "name": "owner",
          "type": "address"
        },
        {
          "internalType": "address",
          "name": "operator",
          "type": "address"
        }
      ],
      "name": "isApprovedForAll",
      "outputs": [
        {
          "internalType": "bool",
          "name": "",
          "type": "bool"
        }
      ],
      "stateMutability": "view",
      "type": "function"
    },
    {
      "inputs": [],
      "name": "makeAnEpicNFT",
      "outputs": [],
      "stateMutability": "nonpayable",
      "type": "function"
    },
    {
      "inputs": [],
      "name": "name",
      "outputs": [
        {
          "internalType": "string",
          "name": "",
          "type": "string"
        }
      ],
      "stateMutability": "view",
      "type": "function"
    },
    {
      "inputs": [
        {
          "internalType": "uint256",
          "name": "tokenId",
          "type": "uint256"
        }
      ],
      "name": "ownerOf",
      "outputs": [
        {
          "internalType": "address",
          "name": "",
          "type": "address"
        }
      ],
      "stateMutability": "view",
      "type": "function"
    },
    {
      "inputs": [
        {
          "internalType": "uint256",
          "name": "tokenId",
          "type": "uint256"
        }
      ],
      "name": "pickRandomFirstWord",
      "outputs": [
        {
          "internalType": "string",
          "name": "",
          "type": "string"
        }
      ],
      "stateMutability": "view",
      "type": "function"
    },
    {
      "inputs": [
        {
          "internalType": "uint256",
          "name": "tokenId",
          "type": "uint256"
        }
      ],
      "name": "pickRandomSecondWord",
      "outputs": [
        {
          "internalType": "string",
          "name": "",
          "type": "string"
        }
      ],
      "stateMutability": "view",
      "type": "function"
    },
    {
      "inputs": [
        {
          "internalType": "uint256",
          "name": "tokenId",
          "type": "uint256"
        }
      ],
      "name": "pickRandomThirdWord",
      "outputs": [
        {
          "internalType": "string",
          "name": "",
          "type": "string"
        }
      ],
      "stateMutability": "view",
      "type": "function"
    },
    {
      "inputs": [
        {
          "internalType": "address",
          "name": "from",
          "type": "address"
        },
        {
          "internalType": "address",
          "name": "to",
          "type": "address"
        },
        {
          "internalType": "uint256",
          "name": "tokenId",
          "type": "uint256"
        }
      ],
      "name": "safeTransferFrom",
      "outputs": [],
      "stateMutability": "nonpayable",
      "type": "function"
    },
    {
      "inputs": [
        {
          "internalType": "address",
          "name": "from",
          "type": "address"
        },
        {
          "internalType": "address",
          "name": "to",
          "type": "address"
        },
        {
          "internalType": "uint256",
          "name": "tokenId",
          "type": "uint256"
        },
        {
          "internalType": "bytes",
          "name": "_data",
          "type": "bytes"
        }
      ],
      "name": "safeTransferFrom",
      "outputs": [],
      "stateMutability": "nonpayable",
      "type": "function"
    },
    {
      "inputs": [
        {
          "internalType": "address",
          "name": "operator",
          "type": "address"
        },
        {
          "internalType": "bool",
          "name": "approved",
          "type": "bool"
        }
      ],
      "name": "setApprovalForAll",
      "outputs": [],
      "stateMutability": "nonpayable",
      "type": "function"
    },
    {
      "inputs": [
        {
          "internalType": "bytes4",
          "name": "interfaceId",
          "type": "bytes4"
        }
      ],
      "name": "supportsInterface",
      "outputs": [
        {
          "internalType": "bool",
          "name": "",
          "type": "bool"
        }
      ],
      "stateMutability": "view",
      "type": "function"
    },
    {
      "inputs": [],
      "name": "symbol",
      "outputs": [
        {
          "internalType": "string",
          "name": "",
          "type": "string"
        }
      ],
      "stateMutability": "view",
      "type": "function"
    },
    {
      "inputs": [
        {
          "internalType": "uint256",
          "name": "tokenId",
          "type": "uint256"
        }
      ],
      "name": "tokenURI",
      "outputs": [
        {
          "internalType": "string",
          "name": "",
          "type": "string"
        }
      ],
      "stateMutability": "view",
      "type": "function"
    },
    {
      "inputs": [
        {
          "internalType": "address",
          "name": "from",
          "type": "address"
        },
        {
          "internalType": "address",
          "name": "to",
          "type": "address"
        },
        {
          "internalType": "uint256",
          "name": "tokenId",
          "type": "uint256"
        }
      ],
      "name": "transferFrom",
      "outputs": [],
      "stateMutability": "nonpayable",
      "type": "function"
    }
  ],
  "bytecode": "0x6080604052604051806105e001604052806105bf815260200162004af16105bf9139600990805190602001906200003892919062000ecd565b506040518061024001604052806040518060400160405280600381526020017f457266000000000000000000000000000000000000000000000000000000000081525081526020016040518060400160405280600981526020017f45766572797768656e000000000000000000000000000000000000000000000081525081526020016040518060400160405280600681526020017f506f70706c65000000000000000000000000000000000000000000000000000081525081526020016040518060400160405280600781526020017f4d656c64726f700000000000000000000000000000000000000000000000000081525081526020016040518060400160405280600681526020017f4f62656c7573000000000000000000000000000000000000000000000000000081525081526020016040518060400160405280600781526020017f536f7a7a6c65640000000000000000000000000000000000000000000000000081525081526020016040518060400160405280600581526020017f536d617a6500000000000000000000000000000000000000000000000000000081525081526020016040518060400160405280600681526020017f446f6e676c65000000000000000000000000000000000000000000000000000081525081526020016040518060400160405280600581526020017f50726f6e6b00000000000000000000000000000000000000000000000000000081525081526020016040518060400160405280600581526020017f467562737900000000000000000000000000000000000000000000000000000081525081526020016040518060400160405280600581526020017f416265617200000000000000000000000000000000000000000000000000000081525081526020016040518060400160405280600681526020017f4669726b696e000000000000000000000000000000000000000000000000000081525081526020016040518060400160405280600581526020017f4f7874657200000000000000000000000000000000000000000000000000000081525081526020016040518060400160405280600581526020017f586572747a00000000000000000000000000000000000000000000000000000081525081526020016040518060400160405280600681526020017f4b6e75726c79000000000000000000000000000000000000000000000000000081525081526020016040518060400160405280600781526020017f50616c617665720000000000000000000000000000000000000000000000000081525081526020016040518060400160405280600581526020017f436c65656b00000000000000000000000000000000000000000000000000000081525081526020016040518060400160405280600581526020017f5477656570000000000000000000000000000000000000000000000000000000815250815250600a9060126200047b92919062000f5e565b506040518061024001604052806040518060400160405280600581526020017f436c65656b00000000000000000000000000000000000000000000000000000081525081526020016040518060400160405280600781526020017f426c75626265720000000000000000000000000000000000000000000000000081525081526020016040518060400160405280600481526020017f4675747a0000000000000000000000000000000000000000000000000000000081525081526020016040518060400160405280600581526020017f536b69726c00000000000000000000000000000000000000000000000000000081525081526020016040518060400160405280600681526020017f446f6c6c6f70000000000000000000000000000000000000000000000000000081525081526020016040518060400160405280600781526020017f466f70706973680000000000000000000000000000000000000000000000000081525081526020016040518060400160405280600481526020017f4e6f6f620000000000000000000000000000000000000000000000000000000081525081526020016040518060400160405280600681526020017f446f74746c65000000000000000000000000000000000000000000000000000081525081526020016040518060400160405280600581526020017f496e6b6c6500000000000000000000000000000000000000000000000000000081525081526020016040518060400160405280600781526020017f536d69636b65720000000000000000000000000000000000000000000000000081525081526020016040518060400160405280600681526020017f57616c6c6168000000000000000000000000000000000000000000000000000081525081526020016040518060400160405280600781526020017f50656e756368650000000000000000000000000000000000000000000000000081525081526020016040518060400160405280600781526020017f4c6f7665726c790000000000000000000000000000000000000000000000000081525081526020016040518060400160405280600781526020017f44726167676c650000000000000000000000000000000000000000000000000081525081526020016040518060400160405280600881526020017f466f6f6c7363617000000000000000000000000000000000000000000000000081525081526020016040518060400160405280600381526020017f457266000000000000000000000000000000000000000000000000000000000081525081526020016040518060400160405280600481526020017f5370696d0000000000000000000000000000000000000000000000000000000081525081526020016040518060400160405280600681526020017f596f6f7065720000000000000000000000000000000000000000000000000000815250815250600b906012620008be92919062000f5e565b506040518061024001604052806040518060400160405280600681526020017f506966666c65000000000000000000000000000000000000000000000000000081525081526020016040518060400160405280600681526020017f507567676c65000000000000000000000000000000000000000000000000000081525081526020016040518060400160405280600681526020017f59697474656e000000000000000000000000000000000000000000000000000081525081526020016040518060400160405280600681526020017f44696e677573000000000000000000000000000000000000000000000000000081525081526020016040518060400160405280600681526020017f4275706b6973000000000000000000000000000000000000000000000000000081525081526020016040518060400160405280600581526020017f416c6f6f6600000000000000000000000000000000000000000000000000000081525081526020016040518060400160405280600581526020017f416265617200000000000000000000000000000000000000000000000000000081525081526020016040518060400160405280600581526020017f446f6f7a7900000000000000000000000000000000000000000000000000000081525081526020016040518060400160405280600881526020017f556e706572736f6e00000000000000000000000000000000000000000000000081525081526020016040518060400160405280600881526020017f42616c6c79686f6f00000000000000000000000000000000000000000000000081525081526020016040518060400160405280600781526020017f4465636b6c65640000000000000000000000000000000000000000000000000081525081526020016040518060400160405280600681526020017f59697474656e000000000000000000000000000000000000000000000000000081525081526020016040518060400160405280600681526020017f5261746f6f6e000000000000000000000000000000000000000000000000000081525081526020016040518060400160405280600681526020017f44696e677573000000000000000000000000000000000000000000000000000081525081526020016040518060400160405280600581526020017f50726f6e6b00000000000000000000000000000000000000000000000000000081525081526020016040518060400160405280600581526020017f416c6f6f6600000000000000000000000000000000000000000000000000000081525081526020016040518060400160405280600681526020017f596f6f706572000000000000000000000000000000000000000000000000000081525081526020016040518060400160405280600881526020017f4361626f74616765000000000000000000000000000000000000000000000000815250815250600c90601262000d0192919062000f5e565b5034801562000d0f57600080fd5b506040518060400160405280600881526020017f5371756972636c650000000000000000000000000000000000000000000000008152506040518060400160405280600481526020017f5351524c00000000000000000000000000000000000000000000000000000000815250816000908051906020019062000d9492919062000ecd565b50806001908051906020019062000dad92919062000ecd565b50505062000dfb6040518060400160405280602081526020017f48656c6c6f2c2049276d20616e2045706963204e465420636f6e74726163742181525062000e0160201b6200114f1760201c565b6200117f565b62000ea18160405160240162000e18919062001093565b6040516020818303038152906040527f41304fac000000000000000000000000000000000000000000000000000000007bffffffffffffffffffffffffffffffffffffffffffffffffffffffff19166020820180517bffffffffffffffffffffffffffffffffffffffffffffffffffffffff838183161783525050505062000ea460201b60201c565b50565b60008151905060006a636f6e736f6c652e6c6f679050602083016000808483855afa5050505050565b82805462000edb9062001109565b90600052602060002090601f01602090048101928262000eff576000855562000f4b565b82601f1062000f1a57805160ff191683800117855562000f4b565b8280016001018555821562000f4b579182015b8281111562000f4a57825182559160200191906001019062000f2d565b5b50905062000f5a919062000fc5565b5090565b82805482825590600052602060002090810192821562000fb2579160200282015b8281111562000fb157825182908051906020019062000fa092919062000ecd565b509160200191906001019062000f7f565b5b50905062000fc1919062000fe4565b5090565b5b8082111562000fe057600081600090555060010162000fc6565b5090565b5b8082111562001008576000818162000ffe91906200100c565b5060010162000fe5565b5090565b5080546200101a9062001109565b6000825580601f106200102e57506200104f565b601f0160209004906000526020600020908101906200104e919062000fc5565b5b50565b60006200105f82620010b7565b6200106b8185620010c2565b93506200107d818560208601620010d3565b62001088816200116e565b840191505092915050565b60006020820190508181036000830152620010af818462001052565b905092915050565b600081519050919050565b600082825260208201905092915050565b60005b83811015620010f3578082015181840152602081019050620010d6565b8381111562001103576000848401525b50505050565b600060028204905060018216806200112257607f821691505b602082108114156200113957620011386200113f565b5b50919050565b7f4e487b7100000000000000000000000000000000000000000000000000000000600052602260045260246000fd5b6000601f19601f8301169050919050565b613962806200118f6000396000f3fe608060405234801561001057600080fd5b50600436106101165760003560e01c806370a08231116100a2578063b88d4fde11610071578063b88d4fde14610305578063c575757a14610321578063c87b56dd14610351578063de9d132f14610381578063e985e9c51461038b57610116565b806370a082311461026b57806395d89b411461029b578063a22cb465146102b9578063b187301f146102d557610116565b806323b872dd116100e957806323b872dd146101b55780632de38d68146101d157806342842e0e1461020157806356d42bb31461021d5780636352211e1461023b57610116565b806301ffc9a71461011b57806306fdde031461014b578063081812fc14610169578063095ea7b314610199575b600080fd5b61013560048036038101906101309190612530565b6103bb565b60405161014291906131b8565b60405180910390f35b61015361049d565b60405161016091906131d3565b60405180910390f35b610183600480360381019061017e9190612582565b61052f565b6040516101909190613128565b60405180910390f35b6101b360048036038101906101ae91906124f4565b6105b4565b005b6101cf60048036038101906101ca91906123ee565b6106cc565b005b6101eb60048036038101906101e69190612582565b61072c565b6040516101f891906131d3565b60405180910390f35b61021b600480360381019061021691906123ee565b61084a565b005b61022561086a565b6040516102329190613453565b60405180910390f35b61025560048036038101906102509190612582565b610874565b6040516102629190613128565b60405180910390f35b61028560048036038101906102809190612389565b610926565b6040516102929190613453565b60405180910390f35b6102a36109de565b6040516102b091906131d3565b60405180910390f35b6102d360048036038101906102ce91906124b8565b610a70565b005b6102ef60048036038101906102ea9190612582565b610a86565b6040516102fc91906131d3565b60405180910390f35b61031f600480360381019061031a919061243d565b610ba4565b005b61033b60048036038101906103369190612582565b610c06565b60405161034891906131d3565b60405180910390f35b61036b60048036038101906103669190612582565b610d24565b60405161037891906131d3565b60405180910390f35b610389610e76565b005b6103a560048036038101906103a091906123b2565b6110bb565b6040516103b291906131b8565b60405180910390f35b60007f80ac58cd000000000000000000000000000000000000000000000000000000007bffffffffffffffffffffffffffffffffffffffffffffffffffffffff1916827bffffffffffffffffffffffffffffffffffffffffffffffffffffffff1916148061048657507f5b5e139f000000000000000000000000000000000000000000000000000000007bffffffffffffffffffffffffffffffffffffffffffffffffffffffff1916827bffffffffffffffffffffffffffffffffffffffffffffffffffffffff1916145b806104965750610495826111e8565b5b9050919050565b6060600080546104ac906136f2565b80601f01602080910402602001604051908101604052809291908181526020018280546104d8906136f2565b80156105255780601f106104fa57610100808354040283529160200191610525565b820191906000526020600020905b81548152906001019060200180831161050857829003601f168201915b5050505050905090565b600061053a82611252565b610579576040517f08c379a0000000000000000000000000000000000000000000000000000000008152600401610570906133b3565b60405180910390fd5b6004600083815260200190815260200160002060009054906101000a900473ffffffffffffffffffffffffffffffffffffffff169050919050565b60006105bf82610874565b90508073ffffffffffffffffffffffffffffffffffffffff168373ffffffffffffffffffffffffffffffffffffffff161415610630576040517f08c379a000000000000000000000000000000000000000000000000000000000815260040161062790613413565b60405180910390fd5b8073ffffffffffffffffffffffffffffffffffffffff1661064f6112be565b73ffffffffffffffffffffffffffffffffffffffff16148061067e575061067d816106786112be565b6110bb565b5b6106bd576040517f08c379a00000000000000000000000000000000000000000000000000000000081526004016106b4906132f3565b60405180910390fd5b6106c783836112c6565b505050565b6106dd6106d76112be565b8261137f565b61071c576040517f08c379a000000000000000000000000000000000000000000000000000000000815260040161071390613433565b60405180910390fd5b61072783838361145d565b505050565b6060600061076061073c846116b9565b60405160200161074c91906130e4565b604051602081830303815290604052611866565b9050600a8054905081610773919061376d565b9050600a81815481106107af577f4e487b7100000000000000000000000000000000000000000000000000000000600052603260045260246000fd5b9060005260206000200180546107c4906136f2565b80601f01602080910402602001604051908101604052809291908181526020018280546107f0906136f2565b801561083d5780601f106108125761010080835404028352916020019161083d565b820191906000526020600020905b81548152906001019060200180831161082057829003601f168201915b5050505050915050919050565b61086583838360405180602001604052806000815250610ba4565b505050565b6000600854905090565b6000806002600084815260200190815260200160002060009054906101000a900473ffffffffffffffffffffffffffffffffffffffff169050600073ffffffffffffffffffffffffffffffffffffffff168173ffffffffffffffffffffffffffffffffffffffff16141561091d576040517f08c379a000000000000000000000000000000000000000000000000000000000815260040161091490613333565b60405180910390fd5b80915050919050565b60008073ffffffffffffffffffffffffffffffffffffffff168273ffffffffffffffffffffffffffffffffffffffff161415610997576040517f08c379a000000000000000000000000000000000000000000000000000000000815260040161098e90613313565b60405180910390fd5b600360008373ffffffffffffffffffffffffffffffffffffffff1673ffffffffffffffffffffffffffffffffffffffff168152602001908152602001600020549050919050565b6060600180546109ed906136f2565b80601f0160208091040260200160405190810160405280929190818152602001828054610a19906136f2565b8015610a665780601f10610a3b57610100808354040283529160200191610a66565b820191906000526020600020905b815481529060010190602001808311610a4957829003601f168201915b5050505050905090565b610a82610a7b6112be565b8383611899565b5050565b60606000610aba610a96846116b9565b604051602001610aa6919061307d565b604051602081830303815290604052611866565b9050600b8054905081610acd919061376d565b9050600b8181548110610b09577f4e487b7100000000000000000000000000000000000000000000000000000000600052603260045260246000fd5b906000526020600020018054610b1e906136f2565b80601f0160208091040260200160405190810160405280929190818152602001828054610b4a906136f2565b8015610b975780601f10610b6c57610100808354040283529160200191610b97565b820191906000526020600020905b815481529060010190602001808311610b7a57829003601f168201915b5050505050915050919050565b610bb5610baf6112be565b8361137f565b610bf4576040517f08c379a0000000000000000000000000000000000000000000000000000000008152600401610beb90613433565b60405180910390fd5b610c0084848484611a06565b50505050565b60606000610c3a610c16846116b9565b604051602001610c26919061305b565b604051602081830303815290604052611866565b9050600c8054905081610c4d919061376d565b9050600c8181548110610c89577f4e487b7100000000000000000000000000000000000000000000000000000000600052603260045260246000fd5b906000526020600020018054610c9e906136f2565b80601f0160208091040260200160405190810160405280929190818152602001828054610cca906136f2565b8015610d175780601f10610cec57610100808354040283529160200191610d17565b820191906000526020600020905b815481529060010190602001808311610cfa57829003601f168201915b5050505050915050919050565b6060610d2f82611252565b610d6e576040517f08c379a0000000000000000000000000000000000000000000000000000000008152600401610d6590613393565b60405180910390fd5b6000600660008481526020019081526020016000208054610d8e906136f2565b80601f0160208091040260200160405190810160405280929190818152602001828054610dba906136f2565b8015610e075780601f10610ddc57610100808354040283529160200191610e07565b820191906000526020600020905b815481529060010190602001808311610dea57829003601f168201915b505050505090506000610e18611a62565b9050600081511415610e2e578192505050610e71565b600082511115610e63578082604051602001610e4b929190612fd7565b60405160208183030381529060405292505050610e71565b610e6c84611a79565b925050505b919050565b60326008541115610ebc576040517f08c379a0000000000000000000000000000000000000000000000000000000008152600401610eb3906132d3565b60405180910390fd5b6000610ec86007611b20565b90506000610ed58261072c565b90506000610ee283610a86565b90506000610eef84610c06565b90506000838383604051602001610f0893929190612ffb565b60405160208183030381529060405290506000600982604051602001610f2f92919061302c565b60405160208183030381529060405290506000610f7483610f4f84611b2e565b604051602001610f6092919061309f565b604051602081830303815290604052611b2e565b9050600081604051602001610f899190613106565b6040516020818303038152906040529050610fd86040518060400160405280601581526020017f0a2d2d2d2d2d2d2d2d2d2d2d2d2d2d2d2d2d2d2d2d000000000000000000000081525061114f565b610fe18161114f565b61101f6040518060400160405280601581526020017f2d2d2d2d2d2d2d2d2d2d2d2d2d2d2d2d2d2d2d2d0a000000000000000000000081525061114f565b6110293389611ccd565b6110338882611ceb565b6110566040518060600160405280602581526020016138c8602591398933611d5f565b6110606007611dfe565b6008600081548092919061107390613724565b91905055507febb98688741ffa4c7589bf325de30cf7becb63de567842e1ccdb6cb949fdc82c33896040516110a992919061318f565b60405180910390a15050505050505050565b6000600560008473ffffffffffffffffffffffffffffffffffffffff1673ffffffffffffffffffffffffffffffffffffffff16815260200190815260200160002060008373ffffffffffffffffffffffffffffffffffffffff1673ffffffffffffffffffffffffffffffffffffffff16815260200190815260200160002060009054906101000a900460ff16905092915050565b6111e58160405160240161116391906131d3565b6040516020818303038152906040527f41304fac000000000000000000000000000000000000000000000000000000007bffffffffffffffffffffffffffffffffffffffffffffffffffffffff19166020820180517bffffffffffffffffffffffffffffffffffffffffffffffffffffffff8381831617835250505050611e14565b50565b60007f01ffc9a7000000000000000000000000000000000000000000000000000000007bffffffffffffffffffffffffffffffffffffffffffffffffffffffff1916827bffffffffffffffffffffffffffffffffffffffffffffffffffffffff1916149050919050565b60008073ffffffffffffffffffffffffffffffffffffffff166002600084815260200190815260200160002060009054906101000a900473ffffffffffffffffffffffffffffffffffffffff1673ffffffffffffffffffffffffffffffffffffffff1614159050919050565b600033905090565b816004600083815260200190815260200160002060006101000a81548173ffffffffffffffffffffffffffffffffffffffff021916908373ffffffffffffffffffffffffffffffffffffffff160217905550808273ffffffffffffffffffffffffffffffffffffffff1661133983610874565b73ffffffffffffffffffffffffffffffffffffffff167f8c5be1e5ebec7d5bd14f71427d1e84f3dd0314c0f7b2291e5b200ac8c7c3b92560405160405180910390a45050565b600061138a82611252565b6113c9576040517f08c379a00000000000000000000000000000000000000000000000000000000081526004016113c0906132b3565b60405180910390fd5b60006113d483610874565b90508073ffffffffffffffffffffffffffffffffffffffff168473ffffffffffffffffffffffffffffffffffffffff16148061144357508373ffffffffffffffffffffffffffffffffffffffff1661142b8461052f565b73ffffffffffffffffffffffffffffffffffffffff16145b80611454575061145381856110bb565b5b91505092915050565b8273ffffffffffffffffffffffffffffffffffffffff1661147d82610874565b73ffffffffffffffffffffffffffffffffffffffff16146114d3576040517f08c379a00000000000000000000000000000000000000000000000000000000081526004016114ca906133d3565b60405180910390fd5b600073ffffffffffffffffffffffffffffffffffffffff168273ffffffffffffffffffffffffffffffffffffffff161415611543576040517f08c379a000000000000000000000000000000000000000000000000000000000815260040161153a90613273565b60405180910390fd5b61154e838383611e3d565b6115596000826112c6565b6001600360008573ffffffffffffffffffffffffffffffffffffffff1673ffffffffffffffffffffffffffffffffffffffff16815260200190815260200160002060008282546115a99190613608565b925050819055506001600360008473ffffffffffffffffffffffffffffffffffffffff1673ffffffffffffffffffffffffffffffffffffffff16815260200190815260200160002060008282546116009190613527565b92505081905550816002600083815260200190815260200160002060006101000a81548173ffffffffffffffffffffffffffffffffffffffff021916908373ffffffffffffffffffffffffffffffffffffffff160217905550808273ffffffffffffffffffffffffffffffffffffffff168473ffffffffffffffffffffffffffffffffffffffff167fddf252ad1be2c89b69c2b068fc378daa952ba7f163c4a11628f55a4df523b3ef60405160405180910390a4505050565b60606000821415611701576040518060400160405280600181526020017f30000000000000000000000000000000000000000000000000000000000000008152509050611861565b600082905060005b6000821461173357808061171c90613724565b915050600a8261172c919061357d565b9150611709565b60008167ffffffffffffffff811115611775577f4e487b7100000000000000000000000000000000000000000000000000000000600052604160045260246000fd5b6040519080825280601f01601f1916602001820160405280156117a75781602001600182028036833780820191505090505b5090505b6000851461185a576001826117c09190613608565b9150600a856117cf919061376d565b60306117db9190613527565b60f81b818381518110611817577f4e487b7100000000000000000000000000000000000000000000000000000000600052603260045260246000fd5b60200101907effffffffffffffffffffffffffffffffffffffffffffffffffffffffffffff1916908160001a905350600a85611853919061357d565b94506117ab565b8093505050505b919050565b6000816040516020016118799190612fc0565b6040516020818303038152906040528051906020012060001c9050919050565b8173ffffffffffffffffffffffffffffffffffffffff168373ffffffffffffffffffffffffffffffffffffffff161415611908576040517f08c379a00000000000000000000000000000000000000000000000000000000081526004016118ff90613293565b60405180910390fd5b80600560008573ffffffffffffffffffffffffffffffffffffffff1673ffffffffffffffffffffffffffffffffffffffff16815260200190815260200160002060008473ffffffffffffffffffffffffffffffffffffffff1673ffffffffffffffffffffffffffffffffffffffff16815260200190815260200160002060006101000a81548160ff0219169083151502179055508173ffffffffffffffffffffffffffffffffffffffff168373ffffffffffffffffffffffffffffffffffffffff167f17307eab39ab6107e8899845ad3d59bd9653f200f220920489ca2b5937696c31836040516119f991906131b8565b60405180910390a3505050565b611a1184848461145d565b611a1d84848484611e42565b611a5c576040517f08c379a0000000000000000000000000000000000000000000000000000000008152600401611a5390613233565b60405180910390fd5b50505050565b606060405180602001604052806000815250905090565b6060611a8482611252565b611ac3576040517f08c379a0000000000000000000000000000000000000000000000000000000008152600401611aba906133f3565b60405180910390fd5b6000611acd611a62565b90506000815111611aed5760405180602001604052806000815250611b18565b80611af7846116b9565b604051602001611b08929190612fd7565b6040516020818303038152906040525b915050919050565b600081600001549050919050565b6060600082511415611b5157604051806020016040528060008152509050611cc8565b60006040518060600160405280604081526020016138ed6040913990506000600360028551611b809190613527565b611b8a919061357d565b6004611b9691906135ae565b90506000602082611ba79190613527565b67ffffffffffffffff811115611be6577f4e487b7100000000000000000000000000000000000000000000000000000000600052604160045260246000fd5b6040519080825280601f01601f191660200182016040528015611c185781602001600182028036833780820191505090505b509050818152600183018586518101602084015b81831015611c87576003830192508251603f8160121c168501518253600182019150603f81600c1c168501518253600182019150603f8160061c168501518253600182019150603f8116850151825360018201915050611c2c565b600389510660018114611ca15760028114611cb157611cbc565b613d3d60f01b6002830352611cbc565b603d60f81b60018303525b50505050508093505050505b919050565b611ce7828260405180602001604052806000815250611fd9565b5050565b611cf482611252565b611d33576040517f08c379a0000000000000000000000000000000000000000000000000000000008152600401611d2a90613353565b60405180910390fd5b80600660008481526020019081526020016000209080519060200190611d5a929190612215565b505050565b611df9838383604051602401611d77939291906131f5565b6040516020818303038152906040527fe3849f79000000000000000000000000000000000000000000000000000000007bffffffffffffffffffffffffffffffffffffffffffffffffffffffff19166020820180517bffffffffffffffffffffffffffffffffffffffffffffffffffffffff8381831617835250505050611e14565b505050565b6001816000016000828254019250508190555050565b60008151905060006a636f6e736f6c652e6c6f679050602083016000808483855afa5050505050565b505050565b6000611e638473ffffffffffffffffffffffffffffffffffffffff16612034565b15611fcc578373ffffffffffffffffffffffffffffffffffffffff1663150b7a02611e8c6112be565b8786866040518563ffffffff1660e01b8152600401611eae9493929190613143565b602060405180830381600087803b158015611ec857600080fd5b505af1925050508015611ef957506040513d601f19601f82011682018060405250810190611ef69190612559565b60015b611f7c573d8060008114611f29576040519150601f19603f3d011682016040523d82523d6000602084013e611f2e565b606091505b50600081511415611f74576040517f08c379a0000000000000000000000000000000000000000000000000000000008152600401611f6b90613233565b60405180910390fd5b805181602001fd5b63150b7a0260e01b7bffffffffffffffffffffffffffffffffffffffffffffffffffffffff1916817bffffffffffffffffffffffffffffffffffffffffffffffffffffffff191614915050611fd1565b600190505b949350505050565b611fe38383612047565b611ff06000848484611e42565b61202f576040517f08c379a000000000000000000000000000000000000000000000000000000000815260040161202690613233565b60405180910390fd5b505050565b600080823b905060008111915050919050565b600073ffffffffffffffffffffffffffffffffffffffff168273ffffffffffffffffffffffffffffffffffffffff1614156120b7576040517f08c379a00000000000000000000000000000000000000000000000000000000081526004016120ae90613373565b60405180910390fd5b6120c081611252565b15612100576040517f08c379a00000000000000000000000000000000000000000000000000000000081526004016120f790613253565b60405180910390fd5b61210c60008383611e3d565b6001600360008473ffffffffffffffffffffffffffffffffffffffff1673ffffffffffffffffffffffffffffffffffffffff168152602001908152602001600020600082825461215c9190613527565b92505081905550816002600083815260200190815260200160002060006101000a81548173ffffffffffffffffffffffffffffffffffffffff021916908373ffffffffffffffffffffffffffffffffffffffff160217905550808273ffffffffffffffffffffffffffffffffffffffff16600073ffffffffffffffffffffffffffffffffffffffff167fddf252ad1be2c89b69c2b068fc378daa952ba7f163c4a11628f55a4df523b3ef60405160405180910390a45050565b828054612221906136f2565b90600052602060002090601f016020900481019282612243576000855561228a565b82601f1061225c57805160ff191683800117855561228a565b8280016001018555821561228a579182015b8281111561228957825182559160200191906001019061226e565b5b509050612297919061229b565b5090565b5b808211156122b457600081600090555060010161229c565b5090565b60006122cb6122c68461349f565b61346e565b9050828152602081018484840111156122e357600080fd5b6122ee8482856136b0565b509392505050565b6000813590506123058161386b565b92915050565b60008135905061231a81613882565b92915050565b60008135905061232f81613899565b92915050565b60008151905061234481613899565b92915050565b600082601f83011261235b57600080fd5b813561236b8482602086016122b8565b91505092915050565b600081359050612383816138b0565b92915050565b60006020828403121561239b57600080fd5b60006123a9848285016122f6565b91505092915050565b600080604083850312156123c557600080fd5b60006123d3858286016122f6565b92505060206123e4858286016122f6565b9150509250929050565b60008060006060848603121561240357600080fd5b6000612411868287016122f6565b9350506020612422868287016122f6565b925050604061243386828701612374565b9150509250925092565b6000806000806080858703121561245357600080fd5b6000612461878288016122f6565b9450506020612472878288016122f6565b935050604061248387828801612374565b925050606085013567ffffffffffffffff8111156124a057600080fd5b6124ac8782880161234a565b91505092959194509250565b600080604083850312156124cb57600080fd5b60006124d9858286016122f6565b92505060206124ea8582860161230b565b9150509250929050565b6000806040838503121561250757600080fd5b6000612515858286016122f6565b925050602061252685828601612374565b9150509250929050565b60006020828403121561254257600080fd5b600061255084828501612320565b91505092915050565b60006020828403121561256b57600080fd5b600061257984828501612335565b91505092915050565b60006020828403121561259457600080fd5b60006125a284828501612374565b91505092915050565b6125b48161363c565b82525050565b6125c38161364e565b82525050565b60006125d4826134e4565b6125de81856134fa565b93506125ee8185602086016136bf565b6125f78161385a565b840191505092915050565b600061260d826134ef565b612617818561350b565b93506126278185602086016136bf565b6126308161385a565b840191505092915050565b6000612646826134ef565b612650818561351c565b93506126608185602086016136bf565b80840191505092915050565b60008154612679816136f2565b612683818661351c565b9450600182166000811461269e57600181146126af576126e2565b60ff198316865281860193506126e2565b6126b8856134cf565b60005b838110156126da578154818901526001820191506020810190506126bb565b838801955050505b50505092915050565b60006126f860328361350b565b91507f4552433732313a207472616e7366657220746f206e6f6e20455243373231526560008301527f63656976657220696d706c656d656e74657200000000000000000000000000006020830152604082019050919050565b600061275e601c8361350b565b91507f4552433732313a20746f6b656e20616c7265616479206d696e746564000000006000830152602082019050919050565b600061279e600a8361351c565b91507f54484952445f574f5244000000000000000000000000000000000000000000006000830152600a82019050919050565b60006127de60248361350b565b91507f4552433732313a207472616e7366657220746f20746865207a65726f2061646460008301527f72657373000000000000000000000000000000000000000000000000000000006020830152604082019050919050565b600061284460198361350b565b91507f4552433732313a20617070726f766520746f2063616c6c6572000000000000006000830152602082019050919050565b6000612884600b8361351c565b91507f5345434f4e445f574f52440000000000000000000000000000000000000000006000830152600b82019050919050565b60006128c4602c8361350b565b91507f4552433732313a206f70657261746f7220717565727920666f72206e6f6e657860008301527f697374656e7420746f6b656e00000000000000000000000000000000000000006020830152604082019050919050565b600061292a600d8361351c565b91507f3c2f746578743e3c2f7376673e000000000000000000000000000000000000006000830152600d82019050919050565b600061296a60258361350b565b91507f54686572652061726520746f6f206d616e792045706963204e46547320616c7260008301527f65616479210000000000000000000000000000000000000000000000000000006020830152604082019050919050565b60006129d060388361350b565b91507f4552433732313a20617070726f76652063616c6c6572206973206e6f74206f7760008301527f6e6572206e6f7220617070726f76656420666f7220616c6c00000000000000006020830152604082019050919050565b6000612a36602a8361350b565b91507f4552433732313a2062616c616e636520717565727920666f7220746865207a6560008301527f726f2061646472657373000000000000000000000000000000000000000000006020830152604082019050919050565b6000612a9c60298361350b565b91507f4552433732313a206f776e657220717565727920666f72206e6f6e657869737460008301527f656e7420746f6b656e00000000000000000000000000000000000000000000006020830152604082019050919050565b6000612b02602e8361350b565b91507f45524337323155524953746f726167653a2055524920736574206f66206e6f6e60008301527f6578697374656e7420746f6b656e0000000000000000000000000000000000006020830152604082019050919050565b6000612b6860028361351c565b91507f227d0000000000000000000000000000000000000000000000000000000000006000830152600282019050919050565b6000612ba860208361350b565b91507f4552433732313a206d696e7420746f20746865207a65726f20616464726573736000830152602082019050919050565b6000612be860318361350b565b91507f45524337323155524953746f726167653a2055524920717565727920666f722060008301527f6e6f6e6578697374656e7420746f6b656e0000000000000000000000000000006020830152604082019050919050565b6000612c4e602c8361350b565b91507f4552433732313a20617070726f76656420717565727920666f72206e6f6e657860008301527f697374656e7420746f6b656e00000000000000000000000000000000000000006020830152604082019050919050565b6000612cb460648361351c565b91507f222c20226465736372697074696f6e223a20224120686967686c79206163636c60008301527f61696d656420636f6c6c656374696f6e206f66207371756972636c652e222c2060208301527f22696d616765223a2022646174613a696d6167652f7376672b786d6c3b62617360408301527f6536342c000000000000000000000000000000000000000000000000000000006060830152606482019050919050565b6000612d6660298361350b565b91507f4552433732313a207472616e73666572206f6620746f6b656e2074686174206960008301527f73206e6f74206f776e00000000000000000000000000000000000000000000006020830152604082019050919050565b6000612dcc602f8361350b565b91507f4552433732314d657461646174613a2055524920717565727920666f72206e6f60008301527f6e6578697374656e7420746f6b656e00000000000000000000000000000000006020830152604082019050919050565b6000612e32600a8361351c565b91507f7b226e616d65223a2022000000000000000000000000000000000000000000006000830152600a82019050919050565b6000612e7260218361350b565b91507f4552433732313a20617070726f76616c20746f2063757272656e74206f776e6560008301527f72000000000000000000000000000000000000000000000000000000000000006020830152604082019050919050565b6000612ed8600a8361351c565b91507f46495253545f574f5244000000000000000000000000000000000000000000006000830152600a82019050919050565b6000612f18601d8361351c565b91507f646174613a6170706c69636174696f6e2f6a736f6e3b6261736536342c0000006000830152601d82019050919050565b6000612f5860318361350b565b91507f4552433732313a207472616e736665722063616c6c6572206973206e6f74206f60008301527f776e6572206e6f7220617070726f7665640000000000000000000000000000006020830152604082019050919050565b612fba816136a6565b82525050565b6000612fcc828461263b565b915081905092915050565b6000612fe3828561263b565b9150612fef828461263b565b91508190509392505050565b6000613007828661263b565b9150613013828561263b565b915061301f828461263b565b9150819050949350505050565b6000613038828561266c565b9150613044828461263b565b915061304f8261291d565b91508190509392505050565b600061306682612791565b9150613072828461263b565b915081905092915050565b600061308882612877565b9150613094828461263b565b915081905092915050565b60006130aa82612e25565b91506130b6828561263b565b91506130c182612ca7565b91506130cd828461263b565b91506130d882612b5b565b91508190509392505050565b60006130ef82612ecb565b91506130fb828461263b565b915081905092915050565b600061311182612f0b565b915061311d828461263b565b915081905092915050565b600060208201905061313d60008301846125ab565b92915050565b600060808201905061315860008301876125ab565b61316560208301866125ab565b6131726040830185612fb1565b818103606083015261318481846125c9565b905095945050505050565b60006040820190506131a460008301856125ab565b6131b16020830184612fb1565b9392505050565b60006020820190506131cd60008301846125ba565b92915050565b600060208201905081810360008301526131ed8184612602565b905092915050565b6000606082019050818103600083015261320f8186612602565b905061321e6020830185612fb1565b61322b60408301846125ab565b949350505050565b6000602082019050818103600083015261324c816126eb565b9050919050565b6000602082019050818103600083015261326c81612751565b9050919050565b6000602082019050818103600083015261328c816127d1565b9050919050565b600060208201905081810360008301526132ac81612837565b9050919050565b600060208201905081810360008301526132cc816128b7565b9050919050565b600060208201905081810360008301526132ec8161295d565b9050919050565b6000602082019050818103600083015261330c816129c3565b9050919050565b6000602082019050818103600083015261332c81612a29565b9050919050565b6000602082019050818103600083015261334c81612a8f565b9050919050565b6000602082019050818103600083015261336c81612af5565b9050919050565b6000602082019050818103600083015261338c81612b9b565b9050919050565b600060208201905081810360008301526133ac81612bdb565b9050919050565b600060208201905081810360008301526133cc81612c41565b9050919050565b600060208201905081810360008301526133ec81612d59565b9050919050565b6000602082019050818103600083015261340c81612dbf565b9050919050565b6000602082019050818103600083015261342c81612e65565b9050919050565b6000602082019050818103600083015261344c81612f4b565b9050919050565b60006020820190506134686000830184612fb1565b92915050565b6000604051905081810181811067ffffffffffffffff821117156134955761349461382b565b5b8060405250919050565b600067ffffffffffffffff8211156134ba576134b961382b565b5b601f19601f8301169050602081019050919050565b60008190508160005260206000209050919050565b600081519050919050565b600081519050919050565b600082825260208201905092915050565b600082825260208201905092915050565b600081905092915050565b6000613532826136a6565b915061353d836136a6565b9250827fffffffffffffffffffffffffffffffffffffffffffffffffffffffffffffffff038211156135725761357161379e565b5b828201905092915050565b6000613588826136a6565b9150613593836136a6565b9250826135a3576135a26137cd565b5b828204905092915050565b60006135b9826136a6565b91506135c4836136a6565b9250817fffffffffffffffffffffffffffffffffffffffffffffffffffffffffffffffff04831182151516156135fd576135fc61379e565b5b828202905092915050565b6000613613826136a6565b915061361e836136a6565b9250828210156136315761363061379e565b5b828203905092915050565b600061364782613686565b9050919050565b60008115159050919050565b60007fffffffff0000000000000000000000000000000000000000000000000000000082169050919050565b600073ffffffffffffffffffffffffffffffffffffffff82169050919050565b6000819050919050565b82818337600083830152505050565b60005b838110156136dd5780820151818401526020810190506136c2565b838111156136ec576000848401525b50505050565b6000600282049050600182168061370a57607f821691505b6020821081141561371e5761371d6137fc565b5b50919050565b600061372f826136a6565b91507fffffffffffffffffffffffffffffffffffffffffffffffffffffffffffffffff8214156137625761376161379e565b5b600182019050919050565b6000613778826136a6565b9150613783836136a6565b925082613793576137926137cd565b5b828206905092915050565b7f4e487b7100000000000000000000000000000000000000000000000000000000600052601160045260246000fd5b7f4e487b7100000000000000000000000000000000000000000000000000000000600052601260045260246000fd5b7f4e487b7100000000000000000000000000000000000000000000000000000000600052602260045260246000fd5b7f4e487b7100000000000000000000000000000000000000000000000000000000600052604160045260246000fd5b6000601f19601f8301169050919050565b6138748161363c565b811461387f57600080fd5b50565b61388b8161364e565b811461389657600080fd5b50565b6138a28161365a565b81146138ad57600080fd5b50565b6138b9816136a6565b81146138c457600080fd5b5056fe416e204e465420772f20494420257320686173206265656e206d696e74656420746f2025734142434445464748494a4b4c4d4e4f505152535455565758595a6162636465666768696a6b6c6d6e6f707172737475767778797a303132333435363738392b2fa2646970667358221220c0fe06e129e6103f15a7e4113a26e7e8b1def8c7f316cec56d69c57b067640d564736f6c634300080000333c73766720786d6c6e733d27687474703a2f2f7777772e77332e6f72672f323030302f73766727207072657365727665417370656374526174696f3d27784d696e594d696e206d656574272076696577426f783d273020302033353020333530273e3c7374796c653e2e62617365207b2066696c6c3a2077686974653b20666f6e742d66616d696c793a2073616e732d73657269663b20666f6e742d7765696768743a3730303b20666f6e742d73697a653a20313470783b207d3c2f7374796c653e3c726563742077696474683d273130302527206865696768743d2731303025272066696c6c3d27626c61636b27202f3e3c7061746820643d274d33353020314831563335304833353056315a272066696c6c3d27626c61636b272f3e3c7061746820643d274d32382e393932203332332e3932374332392e33313837203332332e3932372032392e35393837203332342e3034342032392e383332203332342e3237374333302e30363533203332342e35312033302e313832203332342e37392033302e313832203332352e3131374333302e313832203332352e3434342033302e30363533203332352e3732342032392e383332203332352e3935374332392e35393837203332362e31392032392e33313837203332362e3330372032382e393932203332362e3330374332382e36363533203332362e3330372032382e33383533203332362e31392032382e313532203332352e3935374332372e39313837203332352e3732342032372e383032203332352e3434342032372e383032203332352e3131374332372e383032203332342e37392032372e39313837203332342e35312032382e313532203332342e3237374332382e33383533203332342e3034342032382e36363533203332332e3932372032382e393932203332332e3932375a4d32362e313738203331362e3636374c32302e32203331362e3636374c32302e32203331342e3733354c3330203331342e3733354c3330203331362e3230354c32342e303038203332302e3430354c3330203332302e3430354c3330203332322e3333374c32302e32203332322e3333374c32302e32203332302e3836374c32362e313738203331362e3636375a4d32302e32203330372e3036354c32322e303438203330372e3036354c32322e303438203331302e3938354c32342e333732203331302e3938354c32342e333732203330372e3137374c32362e3232203330372e3137374c32362e3232203331302e3938354c3330203331302e3938354c3330203331322e3931374c32302e32203331322e3931374c32302e32203330372e3036355a4d32302e32203330362e3338354c32302e32203239392e3137354c32322e303438203239392e3137354c32322e303438203330312e3832314c3330203330312e3832314c3330203330332e3735334c32322e303438203330332e3735334c32322e303438203330362e3338354c32302e32203330362e3338355a272066696c6c3d277768697465272f3e3c7265637420783d273332332720793d273139272077696474683d273827206865696768743d2738272066696c6c3d277768697465272f3e3c7265637420783d273331322720793d27333231272077696474683d273427206865696768743d2734272066696c6c3d277768697465272f3e3c7265637420783d2731362720793d273731272077696474683d273427206865696768743d2734272066696c6c3d277768697465272f3e3c7265637420783d273331392720793d27333132272077696474683d273427206865696768743d2734272066696c6c3d277768697465272f3e3c7265637420783d2731382720793d273139272077696474683d273127206865696768743d273433272066696c6c3d277768697465272f3e3c7465787420783d273530252720793d273530252720636c6173733d27626173652720646f6d696e616e742d626173656c696e653d276d6964646c652720746578742d616e63686f723d276d6964646c65273e",
  "linkReferences": {},
  "deployedLinkReferences": {}
}